:100000000C9489050C94201B0C94F91A0C94691615
:100010000C9469160C9469160C94B1050C94B105F6
:100020000C94B1050C94B1050C94B1050C94B10578
:100030000C94B1050C94B1050C94B1050C94B10568
:100040000C94AF1A0C94B1050C9450190C942A1905
:100050000C94B1050C94B1050C94B1050C94B10548
:100060000C94F9160C94B105200ADB0A2D0A3A0A01
:10007000470ADB0ADB0AFB09060A150A540A5D0A6D
:10008000660A6F0ADB0ADB0ADB0ADB0ADB0ADB0A29
:10009000DB0ADB0ADB0ADB0ADB0ADB0ADB0ADB0A38
:1000A000DB0ADB0ADB0ADB0A780ADB0A810A8A0A36
:1000B000930A9C0AA30ADB0ADB0AA90AB20AB70A56
:1000C000BC0AC10AC80ADB0ADB0ADB0ADB0ADB0A54
:1000D000DB0ADB0ADB0ACF0A084AD73B3BCE016EBC
:1000E00084BCBFFDC12F3D6C74319ABD56833DDA8F
:1000F0003D00C77F11BED9E4BB4C3E916BAAAABE9E
:10010000000000803F004E414E494E495459494E2F
:1001100046CDCCCC3D0AD7233C17B7D13877CC2B72
:10012000329595E6241FB14F0A000020410000C817
:100130004200401C4620BCBE4CCA1B0E5AAEC59D98
:100140007400407A10F35A00A0724E18090010A5EE
:10015000D4E80000E87648170000E40B54020000E1
:10016000CA9A3B000000E1F5050000809698000067
:100170000040420F000000A0860100000010270090
:10018000000000E803000000006400000000000A16
:1001900000000000000100000000002C76D888DC80
:1001A000674F0823DFC1DFAE59E1B1B796E5E3E45D
:1001B00053C63AE651997696E8E6C28426EB898CD6
:1001C0009B62ED407C6FFCEFBC9C9F40F2BAA56F38
:1001D000A5F490055A2AF75C936B6CF9676DC11B07
:1001E000FCE0E40D47FEF520E6B500D0ED902E03CF
:1001F00000943577050080841E080000204E0A0018
:100200000000C80C333333330F986E12831141EF63
:100210008D2114893BE65516CFFEE6DB18D1844BC1
:10022000381BF77C1D901DA4BBE424203284725E31
:10023000228100C9F124ECA1E53D2701B202FFFFB4
:100240000190040923A135016A020600016008003B
:100250000000000000000000600440000000016297
:1002600002000000600400400000037B034CCD6CE2
:1002700003AB0336567600680402CB47A20218048B
:1002800000058BC1010C0400000000037F060CC9AF
:100290002C979797038903264666006C022000027C
:1002A0004004000000000244040000000002480472
:1002B00000000000024C0400000000025004000096
:1002C0000000025404000000000258040000000076
:1002D000025C040000000002BC040000000001EC0D
:1002E0000400004000037F060CC92C979797040276
:1002F000030D355D040904872D353D00A301000081
:10030000000001078601FE074105F120283038076B
:100310007E01300746019A074704F1283038076C00
:1003200004F12830380216020001FB00003E000BE9
:100330000036000100020003000000650054FFEFDA
:100340000000FA80000B1282000100020000000091
:100350000000000000000000000000280000FFFF77
:100360004581FFFFFA7200000000000003E8000072
:10037000000100017FFFFFFE8001001B0000000064
:1003800000000000000000000000003E03304000BC
:10039000000002CAE3093E800000200000000000C7
:1003A0000000400000006000000041FF000000006D
:1003B0000B2A0000165500002182FD872650FD8083
:1003C0000000001F00000005800000000000000188
:1003D00000000002000000030000400000000000D8
:1003E000046F0002653200005EC0400000000000A3
:1003F00000000000000000000000FB8C6F5DFD5D50
:1004000008D9007C733B006C12CC3200139D320083
:10041000D0D632000800400001F4FFE680790200E7
:1004200000000000D0D600002710FB0000004000B4
:1004300000000000000000000000000000010000BB
:10044000000000000100010000000000FA36FFBCBF
:10045000308E0005FBF0FFD95BC8FFD09ABE0000CC
:1004600010A9FFF41EB200CEBBF70000000100008F
:100470000004000200020200000CFFC28000000124
:10048000800000CF8000400000000000000100005C
:100490000000000006000000001400000000000042
:1004A000000000000000000000000000000000004C
:1004B000000000000000000000000000000000003C
:1004C0000000000000000000000000000000033FEA
:1004D00068B6793528BCC67ED16C8000000040002B
:1004E00000000000B26A00000000000000000000F0
:1004F000000000003FF0000000300000000000009D
:1005000000000000000000000000000000000000EB
:10051000000000000000000000000000254D002F3A
:10052000706D000005AE000C02D0000000000065F8
:100530000054FFEF00000000000000000100004434
:10054000000000000C000000010000000000006539
:10055000000000540000FFEF000000000000000059
:10056000000000000000000000004000000000004B
:10057000000000000000000000004000000000003B
:10058000000000000000000000000000000100006A
:100590000002000000000000000000000000000059
:1005A000000000000000000000000000000000004B
:1005B00000000000000000000000001B0000000020
:1005C000000000000000000000000000000000002B
:1005D000000000000000000000000000000000001B
:1005E00000000000000040000000001B00000000B0
:1005F00000000000000000000000000000000000FB
:1006000000000000000000000000000000000000EA
:1006100000000000000000000000000000000000DA
:1006200000000000000000000000D8DCBAA2F1DEEB
:10063000B2B8B4A88191F74A907F916AF3F9DBA828
:10064000F9B0BAA080F2CE81F3C2F1C1F2C3F3CC0B
:10065000A2B280F1C6D880BAA7DFDFDFF2A7C3CB92
:10066000C5B6F087A2942448703C95406834589BE6
:1006700078A2F183922D557DD8B1B4B8A1D09180E4
:10068000F270F370F27C80A8F101B09887D943D85A
:1006900086C988BAA1F20EB89780F1A9DFDFDFAA78
:1006A000DFDFDFF2AAC5CDC7A90CC92C97979797B2
:1006B000F1A989264666B0B4BA80ACDEF2CAF1B2BE
:1006C0008C02A9B69800890E161EB8A9B4992C54AC
:1006D0007CB08AA896365676F1B9AFB4B083C0B86C
:1006E000A89711B18F98B9AFF0240844106418F19D
:1006F000A329557DAF83B593AFF0002850F1A386B1
:100700009F61A6DADEDFD9FAA38696DB31A6D9F897
:10071000DFBAA68FC2C5C7B28CC1B8A2DFDFDFA324
:10072000DFDFDFD8D8F1B8A8B286B4980D355DB850
:10073000AA98B0872D353DB2B6BAAF8C96198F9F67
:10074000A70E161EB49AB8AA872C547CB9A3DEDF74
:10075000DFA3B180F2C4CDC9F1B8A9B499830D3536
:100760005D89B9A32D557DB593A30E161EA92C54F2
:100770007CB8B4B0F19783A81184A50998A383F03D
:10078000DA240844106418D8F1A529557DA585956B
:10079000021A2E3A565A4048F9F3A3D9F8F0988332
:1007A0002408441064189782A8F111F098A2240834
:1007B00044106418DAF3DED883A59401D9A302F1BA
:1007C000A2C3C5C7D8F18492A24DDA2AD84869D904
:1007D0002AD86855DA32D85071D932D8705DDA3AF1
:1007E000D85879D93AD87893A34DDA2AD84869D914
:1007F0002AD86855DA32D85071D932D8705DDA3AD1
:10080000D85879D93AD878A88A9AF02850789EF39F
:100810008818F19F1D98A8D908D8C89F129EF31573
:10082000A8DA1210D8F1AFC8978734B5B994A421CB
:10083000F3D922D8F22DF3D92AD8F235F3D932D808
:1008400081A4606061D961D86C6869D969D8747015
:1008500071D971D8B1A384193D5DA3831A3E5E930B
:100860001030811011B8B0AF8F94F2DA3ED8B49A3C
:10087000A88729DAF8D8879A35DAF8D8879A3DDA3E
:10088000F8D8B1B9A49885022E56A581000C14A3FE
:1008900097B08AF12DD928D84DD948D86DD968D8C4
:1008A000B1840DDA0ED8A32983DA2C0ED8A384499B
:1008B00083DA2C4C0ED8B8B0A88A9AF520AADADFD1
:1008C000D8A840AAD0DADED8A860AADAD0DFD8F15A
:1008D0009786A8319B069907AB9728889BF00C2038
:1008E0001440B8B0B4A88C9CF0042851791D301481
:1008F00038B282ABD0982C505078789BF11AB0F077
:100900008A9CA82951798B2951798A2470598B2086
:1009100058718A4469388B3940688A6448318B3011
:100920004960A58820097158446811396449301913
:10093000F1AC002C547CF08CA804285078F18897F6
:1009400026A85998AC8C02264666F0899CA82951A5
:1009500079247059446938644831A988092059704C
:10096000AB11384069A8193148608CA83C415C2023
:100970007C00F187981986A86E767EA999882D55F6
:100980007D9EB9A38A228A6E8A568A5E9FB18306AB
:100990002646660E2E4E6E9DB8AD002C547CF2B1EC
:1009A0008CB499B9A32D557D8191AC38AD3AB583FE
:1009B00091AC2DD928D84DD948D86DD968D88C9DFF
:1009C000AE29D904AED851D904AED879D904D8818A
:1009D000F39DAD008DAE1981ADD901D8F2AEDA2606
:1009E000D88E912983A7D9ADADADADF32AD8D8F172
:1009F000B0AC89913E5E76F3AC2E2EF1B18C5A9C50
:100A0000AC2C2828289CAC3018A8988128343C9716
:100A100024A728343C9C24F2B089AC912C4C6C8ADD
:100A20009B2DD9D8D851D9D8D879D9D8D8F19E8882
:100A3000A331DAD8D8912DD928D84DD948D86DD935
:100A400068D8B18393353D8025DAD8D88569DAD85E
:100A5000D8B49381A328343CF3AB8BF8A391B609A7
:100A6000B4D9ABDEFAB0879CB9A3DDF1A3A3A3A3ED
:100A700095F1A3A3A39DF1A3A3A3A3F2A3B4908094
:100A8000F2A3A3A3A3A3A3A3A3A3A3B2A3A3A3A3D8
:100A9000A3A3B087B599F1A3A3A398F1A3A3A3A39C
:100AA00097A3A3A3A3F39BA3A3DCB9A7F1262626B0
:100AB000D8D8FF00000000250028002B000000000F
:100AC0000023002600290004040404040404040292
:100AD00002020202020303030303030102040810DB
:100AE00020408001020408102001020408102000A8
:100AF000000000240027002A000000000800020176
:100B00000000030407000000000000000000B425FE
:100B1000A62511241FBECFEFD8E0DEBFCDBF24E055
:100B2000A4E7B1E001C01D92A135B207E1F711E0E1
:100B3000A0E0B1E0E8E3F2E602C005900D92A43730
:100B4000B107D9F715E0C8E8D5E004C02197FE0148
:100B50000E94DC2EC738D107C9F70E94411C0C94B3
:100B60000F310C940000CF92DF92EF92FF926091D0
:100B7000360270913702072E000C880B990B0E94E9
:100B8000162B2091A8013091A9014091AA01509102
:100B9000AB010E94882C6B017C0120E030E044EB2B
:100BA00053E40E94352E18164CF420E030E044EB5C
:100BB00053E4C701B6010E94872C1AC020E030E040
:100BC000A901C701B6010E940F2B87FD09C0C09281
:100BD000A801D092A901E092AA01F092AB0110C045
:100BE00020E030E044EB53E4C701B6010E94882CBA
:100BF0006093A8017093A9018093AA019093AB011F
:100C00001092370210923602FF90EF90DF90CF9053
:100C10000895CF92DF92EF92FF9260913802709127
:100C20003902072E000C880B990B0E94162B6B01C2
:100C30007C0120E030E048EC52EC0E940F2B87FD55
:100C400013C020E030E048EC52E4C701B6010E9436
:100C5000352E181674F02AE037ED43E25CE3C70145
:100C6000B6010E94752B09C060E070E080E89FEB40
:100C700004C060E070E080E89FE329E335E44AE6E1
:100C800052E40E94752B60938C0170938D018093C8
:100C90008E0190938F01FF90EF90DF90CF90089599
:100CA0008230A1F0833029F57093DF016093DE017B
:100CB0008CEA9EE090931B0180931A018091690059
:100CC000837F846080936900E99A11C07093DD018D
:100CD0006093DC0182EB9EE09093190180931801F0
:100CE000809169008C7F816080936900E89A81E03F
:100CF000089580E0089528E036E34EE854E46091DA
:100D000088017091890180918A0190918B010E94E4
:100D1000752B609388017093890180938A01909369
:100D20008B011092900110929101109292011092F9
:100D300093018091980190919901A0919A01B091AD
:100D40009B018093840190938501A0938601B093C9
:100D500087018093940190939501A0939601B0939D
:100D600097016AE571E08EE293E00C942A130F93E9
:100D70001F93CF93DF938C01C5E0D0E061E0013099
:100D8000110511F48DE001C08CE00E94821964E627
:100D900070E080E090E00E94691A60E00130110587
:100DA00011F48DE001C08CE00E94821964E670E0CD
:100DB00080E090E00E94691A219701F7DF91CF91BE
:100DC0001F910F9108950F931F93CF93DF93CDB78A
:100DD000DEB72C970FB6F894DEBF0FBECDBF8B01E8
:100DE000682FCE0107960E94C613B801CE01079660
:100DF0000E9417136AE00E94F912BC01CE0101960D
:100E00000E94DE13CE0107960E9491134D815E81F0
:100E100069817A8185E892E00E94230FCE010196D4
:100E20000E9491132C960FB6F894DEBF0FBECDBF73
:100E3000DF91CF911F910F9108950F931F93CF933F
:100E4000DF93CDB7DEB7A4970FB6F894DEBF0FBE21
:100E5000CDBF85E892E00E945818181619060CF0CC
:100E600088C285E892E00E943618182F62E771E088
:100E7000CE0149960E94E7130E947B1297FD0FC096
:100E80008A30910561F089831A8241E050E0BE0109
:100E90006F5F7F4FCE0149960E94CB12EDCFBE010E
:100EA000675E7F4FCE014F960E94DE1362E771E0CE
:100EB000CE0143960E94E713133609F43FC10CF0AC
:100EC00082C0153409F417C1B4F4123409F4F1C026
:100ED000143409F401C1113409F03FC2CE014F9618
:100EE0000E94B51260930C0170930D0180930E0166
:100EF00090930F0132C2133509F40AC184F41634F9
:100F000009F02BC2CE014F960E94B51260930001EA
:100F10007093010180930201909303011EC2143566
:100F200009F401C1113609F018C240910C01509129
:100F30000D0160910E0170910F0127E0CE010D9619
:100F40000E949613409108015091090160910A0195
:100F500070910B0127E0CE0107960E9496136BE576
:100F6000CE0101960E94C613BE01635F7F4FCE0182
:100F700001960E9417136CE20E94F912BE01695F8C
:100F80007F4F0E9417136DE50E94F912BC01CE013C
:100F900043960E944113CE0101960E949113CE0107
:100FA00007960E949113CE010D960E949113BE01E7
:100FB0006D5E7F4FCE0101960E94DE13BE016F5F12
:100FC0007F4F81E6C4C1183609F446C17CF5153659
:100FD00009F4FAC00CF4C4C0163609F419C1173666
:100FE00009F0BBC14091A4015091A5016091A601F7
:100FF0007091A70121E0CE0101960E949613BE01D7
:101000006F5F7F4FCE0143960E945813CE01019629
:101010000E949113BE016D5E7F4FCE0101960E942A
:10102000DE13BE016F5F7F4F87E691C11D3609F465
:1010300037C1ACF41B3609F090C16EE273E0CE010B
:1010400043960E944113BE016D5E7F4FCE01019613
:101050000E94DE13BE016F5F7F4F8BE678C11337AE
:1010600009F442C1193709F078C14091BA01509191
:10107000BB016091BC017091BD0121E0CE010196E0
:101080000E949613BE016F5F7F4FCE0143960E9470
:101090005813CE0101960E949113BE016D5E7F4FE1
:1010A000CE0101960E94DE13BE016F5F7F4F89E77C
:1010B0004EC1CE014F960E94B51260930801709305
:1010C000090180930A0190930B0181E090E09093D5
:1010D000B1018093B00141C1CE014F960E94B5127B
:1010E000609388017093890180938A0190938B01AA
:1010F0000E947B0632C1CE014F960E94B5126093CA
:10110000040170930501809306019093070125C1A6
:10111000CE014F960E94C01270933902609338023C
:101120000E9409061AC1CE014F960E94C012709308
:101130003702609336020E94B3050FC16CE571E07F
:10114000CE0143960E942A13BE016D5E7F4FCE01F1
:1011500001960E94DE13BE016F5F7F4F83E4F7C0EC
:1011600028E036E34EE854E46091900170919101DB
:1011700080919201909193010E94662DAB01BC0178
:1011800040933202509333026093340270933502DD
:1011900022E0CE0101960E949613BE016F5F7F4F41
:1011A000CE0143960E945813CE0101960E949113DE
:1011B000BE016D5E7F4FCE0101960E94DE13BE011F
:1011C0006F5F7F4F84E6C3C04091040150910501D9
:1011D000609106017091070125E0CE0101960E9401
:1011E0009613BE016F5F7F4FCE0143960E94581346
:1011F000CE0101960E949113BE016D5E7F4FCE011C
:1012000001960E94DE13BE016F5F7F4F85E69FC08F
:101210004091000150910101609102017091030120
:1012200025E0CE0101960E949613BE016F5F7F4FAD
:10123000CE0143960E945813CE0101960E9491134D
:10124000BE016D5E7F4FCE0101960E94DE13BE018E
:101250006F5F7F4F86E67BC04091A8015091A90146
:101260006091AA017091AB0121E0CE0101960E942C
:101270009613BE016F5F7F4FCE0143960E945813B5
:10128000CE0101960E949113BE016D5E7F4FCE018B
:1012900001960E94DE13BE016F5F7F4F88E657C044
:1012A0004091840150918501609186017091870180
:1012B00021E0CE0101960E949613BE016F5F7F4F21
:1012C000CE0143960E945813CE0101960E949113BD
:1012D000BE016D5E7F4FCE0101960E94DE13BE01FE
:1012E0006F5F7F4F8DE633C028E036E34EE854E46D
:1012F00060918001709181018091820190918301C0
:101300000E94662DAB01BC0140932E0250932F0228
:10131000609330027093310222E0CE0101960E9468
:101320009613BE016F5F7F4FCE0143960E94581304
:10133000CE0101960E949113BE016D5E7F4FCE01DA
:1013400001960E94DE13BE016F5F7F4F83E70E940C
:10135000E306CE0101960E949113CE0143960E94AE
:101360009113CE014F960E949113CE0149960E948F
:10137000911384E393E00E947114181619060CF07F
:1013800022C184E393E00E948914182F62E771E080
:10139000CE0107960E94E71384E393E00E9489142C
:1013A000082FBE01695F7F4FCE0101960A3089F098
:1013B0000E94DE13602FCE0101960E94F912BC013B
:1013C000CE0107960E944113CE0101960E9491130F
:1013D000E3CF0E94DE13812F110F990BAA0BBB0BD9
:1013E000FC01E154F109E833F10508F0E4C0EC5CDC
:1013F000FF4F0C94DC2ECE0101960E94C012709318
:101400003902609338020E940906D5C0CE010196C8
:101410000E94B512609388017093890180938A01BC
:1014200090938B010E947B06C6C0CE0101960E945C
:10143000C01270933702609336020E94B305BBC09E
:10144000CE0101960E94B51260930C0170930D01BC
:1014500080930E0190930F01AEC0CE0101960E94C1
:10146000B512609308017093090180930A0190936B
:101470000B01A1C0CE0101960E94B5126093040138
:1014800070930501809306019093070194C0CE01EB
:1014900001960E94B5126093000170930101809340
:1014A00002019093030187C0CE0101960E94C012F1
:1014B00070931701609316017EC0CE0101960E94C1
:1014C000C012709313016093120175C0CE01019692
:1014D0000E94C01270931501609314016CC0CE017C
:1014E00001960E94C012709311016093100163C0B5
:1014F00060910C0170910D0180910E0190910F018E
:1015000056C0609108017091090180910A01909183
:101510000B014DC06091040170910501809106019D
:101520009091070144C06091000170910101809188
:101530000201909103013BC042E050E060E070E0A6
:1015400080E89FE336C042E050E060E070E0CB010D
:1015500030C06091A8017091A9018091AA01909179
:10156000AB0125C080911601909117010EC08091AA
:1015700012019091130109C08091140190911501FD
:1015800004C080911001909111010E944A1213C071
:1015900042E050E06DEC7CEC8CE49FE30AC060918B
:1015A000CA017091CB018091CC019091CD0143E0B3
:1015B00050E00E947811CE0101960E949113CE0155
:1015C00007960E949113A4960FB6F894DEBF0FBE43
:1015D000CDBFDF91CF911F910F910895F894109294
:1015E000960310929703109298031092990378949F
:1015F000F89410928A0310928B0310928C0310922D
:101600008D03789410927F0110927E0110927D01DB
:1016100010927C018091800190918101A0918201C2
:10162000B0918301B0588093940190939501A09359
:101630009601B093970180918C0190918D01A091BA
:101640008E01B0918F018093840190938501A093C6
:101650008601B093870108954F925F926F927F92B7
:101660008F929F92AF92BF92CF92DF92EF92FF92B2
:101670000F931F93CF93DF93CDB7DEB768970FB665
:10168000F894DEBF0FBECDBF0E943C1190932D0297
:1016900080932C0200912C0210912D0260917A010E
:1016A00070917B010617170778F38CEE91E00E948A
:1016B000291180917A0190917B01081B190B1093DD
:1016C0002D0200932C02A090F001B12CBA2CAA2478
:1016D0008091F101A82A0091F40110E0102F002759
:1016E0008091F501082B8091F80190E0982E8824D4
:1016F0008091F901882A6091EC0170E0762F6627CD
:101700008091ED01682B072E000C880B990B0E942D
:10171000162B20E030E040E858E30E94752B6B0167
:101720007C0160935F0370936003809361039093E7
:101730006203B501BB0C880B990B0E94162B20E0AD
:1017400030E040E858E30E94752B2B013C01609388
:101750006303709364038093650390936603B801F9
:10176000110F880B990B0E94162B20E030E040E807
:1017700058E30E94752B69837A838B839C836093E3
:101780006703709368038093690390936A03B401BD
:10179000990C880B990B0E94162B20E030E040E852
:1017A00058E30E94752B6D837E838F8398876093A7
:1017B0006B0370936C0380936D0390936E039B0196
:1017C000AC01C301B2010E94752B4B015C01298160
:1017D0003A814B815C81C701B6010E94752B9B0148
:1017E000AC01C501B4010E94872C9B01AC010E9491
:1017F000882C69877A878B879C87609353037093C3
:1018000054038093550390935603A3019201C7019B
:10181000B6010E94752B4B015C012D813E814F81E9
:10182000588569817A818B819C810E94752B9B01EF
:10183000AC01C501B4010E94882C9B01AC010E943F
:10184000882C6D877E878F87988B60935703709362
:1018500058038093590390935A03A7019601C70137
:10186000B6010E94752B4B015C01A3019201C301DB
:10187000B2010E94752B9B01AC01C501B4010E940D
:10188000872C4B015C0129813A814B815C81CA0123
:10189000B9010E94752B9B01AC01C501B4010E94E6
:1018A000872C4B015C012D813E814F815885CA01F7
:1018B000B9010E94752B9B01AC01C501B4010E94C6
:1018C000882C4B015C0160935B0370935C038093F5
:1018D0005D0390935E03A7019601C701B6010E94C4
:1018E000882C698B7A8B8B8B9C8BA3019201C30113
:1018F000B2010E94882C6D8B7E8B8F8B988FA701F5
:10190000960169897A898B899C890E94752B6B0164
:101910007C01A30192016D897E898F89988D0E9437
:10192000752B9B01AC01C701B6010E94882C20E0F9
:1019300030E040E85FE30E94872C6B017C01298145
:101940003A814B815C816D897E898F89988D0E9457
:10195000752B2B013C012D813E814F815885698972
:101960007A898B899C890E94752B9B01AC01C301EC
:10197000B2010E94872CA70196010E94072D6B01DE
:101980007C016093E0017093E1018093E201909308
:10199000E301A5019401C501B4010E94752B2B013F
:1019A0003C012D853E854F855889CA01B9010E94A9
:1019B000752BA30192010E94882C0E94482E9B0146
:1019C000AC0169857A858B859C850E94662D0E9475
:1019D000372D4B015C016093E4017093E501809326
:1019E000E6019093E70129853A854B855C85CA011C
:1019F000B9010E94752BA30192010E94882C0E94BC
:101A0000482E9B01AC016D857E858F8598890E944B
:101A1000662D0E94372D6093E8017093E901809351
:101A2000EA019093EB0121EE3EE245E652E4C50166
:101A3000B4010E94752B2DEC3CEC4CE45FE30E945A
:101A4000882C6093CA017093CB018093CC01909352
:101A5000CD0121EE3EE245E652E4C701B6010E9407
:101A6000752B6B017C0120E030E0A9010E940F2B57
:101A700087FD09C0C092AC01D092AD01E092AE01E9
:101A8000F092AF0110C020E030E044EB53E4C70116
:101A9000B6010E94882C6093AC017093AD018093D5
:101AA000AE019093AF0168960FB6F894DEBF0FBEFB
:101AB000CDBFDF91CF911F910F91FF90EF90DF90FD
:101AC000CF90BF90AF909F908F907F906F905F90DE
:101AD0004F900C945810CF92DF92EF92FF9260E0FB
:101AE00070E089E00E940A1A60E070E08AE00E94DB
:101AF0000A1A61E08DE00E94821960E08CE00E9489
:101B000082196EE571E08EE293E00E942A13109232
:101B10003902109238021092370210923602109257
:101B20008C0110928D0110928E0110928F011092F3
:101B30008401109285011092860110928701109203
:101B400098011092990110929A0110929B011092A3
:101B500094011092950110929601109297011092A3
:101B6000800110928101109282011092830180E025
:101B700090E0A0E0B0EC8093A4019093A501A09325
:101B8000A601B093A7011092A0011092A10110929A
:101B9000A2011092A30110929C0110929D0110923B
:101BA0009E0110929F011092BE011092BF011092EF
:101BB000C0011092C1011092880110928901109207
:101BC0008A0110928B011092900110929101109253
:101BD0009201109293011092A8011092A901109203
:101BE000AA011092AB011092BA011092BB0110929F
:101BF000BC011092BD011092B6011092B701109273
:101C0000B8011092B9011092B2011092B301109272
:101C1000B4011092B5010E94EE0A0E942C0B0E94A2
:101C20001D07C090CA01D090CB01E090CC01F0908C
:101C3000CD0120E030E040EA51ECC701B6010E943E
:101C40000F2B87FDEACF20E030E040EA51E4C701E6
:101C5000B6010E94352E181604F360E08DE00E9454
:101C6000821960E08CE00E94821960E671E08EE2E9
:101C700093E00E942A138091AC019091AD01A09154
:101C8000AE01B091AF018093A8019093A901A093F8
:101C9000AA01B093AB011092CA011092CB0110922D
:101CA000CC011092CD010E94A31A6093C6017093DB
:101CB000C7018093C8019093C9011092C20110928C
:101CC000C3011092C4011092C501FF90EF90DF9004
:101CD000CF900895DC01ED91FD918081ED91FD9112
:101CE0009081ED91FD916C9163708E2309F0646099
:101CF0009F2309F06860E7E8FEE0E60FF11D6595B7
:101D000065956D936D917D918D919D91099423C001
:101D10001AC012C016C010C01EC009C014C013C023
:101D200006C019C009C00DC007C00DC014C0625064
:101D30007040804090400BC06150704080409040A7
:101D400006C06E5F01C06F5F7F4F8F4F9F4F9E93A6
:101D50008E937E936E9308958091DE019091DF01C2
:101D60000C946A0E8091DC019091DD010C946A0E56
:101D70000F931F93CF93DF93EC01062F142F62E094
:101D8000802F0E94CE1962E0812F0E94CE19802FF1
:101D900090E0FC01E953F54FE491F0E0EE0FFF1FF6
:101DA000E354F54FA591B491B983A883FC01E552A2
:101DB000F54F84918C83212F30E0F901E953F54FE1
:101DC0009491E92FF0E0EE0FFF1FE354F54F45919A
:101DD00054915B834A83F901E552F54FE491ED8319
:101DE0001F82188619861A86EBE3FFE13197F1F717
:101DF000EC91E82381E009F480E0FA0120819D81E3
:101E0000922309F082608E83BE01802F0E945006CB
:101E10008B87BE01812F0E9450062B8590E0820F98
:101E2000911D8B87DF91CF911F910F910895E091C4
:101E30003403F09135030190F081E02D682F84E3A5
:101E400093E009940895CF92DF92EF92FF920F935F
:101E50001F93CF93DF936C017A018B01C0E0D0E038
:101E6000CE15DF0589F0D8016D918D01D601ED9178
:101E7000FC910190F081E02DC6010995892B11F4A8
:101E80007E0102C02196ECCFC701DF91CF911F9157
:101E90000F91FF90EF90DF90CF900895CF93DF9355
:101EA000EC0188819981009711F00E948B2F198293
:101EB00018821D821C821B821A82DF91CF910895A5
:101EC000009769F0FC0101900020E9F73197AF011C
:101ED000481B590BBC0184E393E00C94230F80E072
:101EE00090E008958F929F92AF92BF920F931F93AD
:101EF000CF93DF93CDB7DEB7A1970FB6F894DEBFCF
:101F00000FBECDBF19A2423008F44AE08E010F5D2A
:101F10001F4F842E912CA12CB12CA50194010E945D
:101F2000BA2EE62FB901CA0101501109EA3014F4A2
:101F3000E05D01C0E95CD801EC93232B242B252B19
:101F400061F7C8010E94600FA1960FB6F894DEBF3A
:101F50000FBECDBFDF91CF911F910F91BF90AF907A
:101F60009F908F9008950F931F93CF93DF93EC0171
:101F700088819981009729F02A813B8126173707AC
:101F800088F48B016F5F7F4F0E942330009761F0D0
:101F9000998388831B830A832C813D81232B11F431
:101FA000FC01108281E001C080E0DF91CF911F91A0
:101FB0000F910895EF92FF920F931F93CF93DF93AA
:101FC000EC017B018A01BA010E94B30F811104C0A8
:101FD000CE010E944E0F07C01D830C83B70188817C
:101FE00099810E940831CE01DF91CF911F910F910D
:101FF000FF90EF9008952091840290918302213206
:1020000008F04AC0809160028111FCCF32E0309329
:10201000600231E030935F023FEF30935E02109236
:102020005D0220935C02A3E6B2E04CE352E0FA01C9
:102030003E2F341B321718F43D913193F9CF109293
:102040003B0220913B02990F922B90933B0290917F
:102050003A02913061F410923A0290913B029093CF
:10206000BB009091BC0093FDF8CF95EC01C095EEBC
:102070009093BC00909160029230E1F390915E02E7
:102080009F3F79F080915E02803241F080915E0244
:10209000803331F084E005C081E003C082E001C0FC
:1020A00083E01092620210928402109261020895FD
:1020B00021E042E06AE6809170030C94071C482FEF
:1020C0006EE6809170030C94AC1B2F923F924F925E
:1020D0005F926F927F928F929F92AF92BF92CF92B8
:1020E000DF92EF92FF920F931F93CF93DF933C0108
:1020F0005B01342ED22F202E4F716DE6809170033C
:102100000E94AC1B8D2F0E945F1080E190E00E9426
:10211000F62E6C01002339F080E190E00E94F62E4B
:10212000C82F492E02C0C0E0412CE12CF12CEA144A
:10213000FB0408F06EC0C7014096A816B90618F453
:102140005A2C5E1802C080E1582E852D90E020E0C8
:1021500031E02D1B31092817390714F45D2E5194F5
:10216000F301EE0DFF1D222059F09C2FAC2FB42D52
:102170008A2F891B851530F484918D933196F8CF81
:10218000CE2F4F2E2C2F342D452D6FE680917003CE
:102190000E94471B852C912CC114D10429F1432D99
:1021A0004F716DE6809170030E94AC1B8D2F0E94D1
:1021B0005F1008EE13E09601452D6FE680917003E5
:1021C0000E946315A401B6018C2F942D0E94F23059
:1021D000892B51F0C6010E948B2F222021F18C2FD8
:1021E000942D0E948B2F1FC0E80CF91CD50DEA140A
:1021F000FB0408F09CCFD11101C03394432D4F71E3
:102200006DE6809170030E94AC1B8D2F0E945F10C1
:102210008ECFC6010E948B2F222039F08C2F942D57
:102220000E948B2F02C080E001C081E0DF91CF913E
:102230001F910F91FF90EF90DF90CF90BF90AF90E4
:102240009F908F907F906F905F904F903F902F90D6
:1022500008950F931F93662351F0462F9C0108EEBB
:1022600013E064E7809170030E94631502C0FC01D3
:1022700010821F910F9108950F931F93CF93DF93B7
:10228000C0E7D3E008EE13E021E733E042E062E785
:1022900088810E946315898190E0982F88272A8180
:1022A000822BDF91CF911F910F910895EF92FF92B2
:1022B0000F931F93CF93DF931F92CDB7DEB77A01B1
:1022C00089019E012F5F3F4F41E00E9463158823E3
:1022D00039F029812E7730E035952795F701208355
:1022E0000F90DF91CF911F910F91FF90EF90089584
:1022F0004F925F926F927F928F929F92AF92BF9216
:10230000CF92DF92EF92FF92CF93DF936B017C012C
:10231000B42E9B01AC010E948C2E882319F084E618
:1023200091E01AC026013701E89477F82FEF3FEFCC
:102330004FE75FE7C301B2010E948C2E811110C0EC
:102340002FEF3FEF4FE75FE7C301B2010E940F2B72
:10235000181634F488E691E00E94600FEC0185C005
:102360002FEF3FEF4FE75FE4C701B6010E94352E24
:1023700018161CF48CE691E0EFCF2FEF3FEF4FE7FC
:102380005FECC701B6010E940F2B87FDF3CF20E061
:1023900030E0A901C701B6010E940F2B87FF09C0D9
:1023A0008DE20E94170FEC01F7FAF094F7F8F09421
:1023B00002C0C0E0D0E0A12C60E070E080E09FE3CC
:1023C000AB1440F420E030E040E251E40E94662D7E
:1023D000A394F6CF9B01AC01C701B6010E94882CE3
:1023E0002B013C010E94DF2D6B017C010E94142B0C
:1023F0009B01AC01C301B2010E94872C2B013C015F
:102400004AE0C701B6010E94720FC80FD91FBB2056
:1024100029F08EE20E94170FC80FD91FFB2CFF2056
:1024200021F120E030E040E251E4C301B2010E941A
:10243000752B2B013C010E94DF2D4B01A12CB12CEF
:102440004AE0C501B4010E94720FC80FD91FC5012F
:10245000B4010E94142B9B01AC01C301B2010E9484
:10246000872C2B013C01FA94DACF80E791E00E949F
:10247000600F8C0F9D1FDF91CF91FF90EF90DF9049
:10248000CF90BF90AF909F908F907F906F905F9014
:102490004F900895CF92DF92EF92FF92CF93DF9308
:1024A0006C01990FEE08FF08F7FE12C08DE20E9442
:1024B000170FEC0166277727CB016C197D098E0970
:1024C0009F094AE00E94720F7C01EC0EFD1E06C0BF
:1024D0004AE0C701B6010E94720F7C0180E791E0DB
:1024E0000E94600F8E0D9F1DDF91CF91FF90EF90A6
:1024F000DF90CF9008950F931F930E94A31A6093CB
:102500008D0270938E0280938F0290939002E091DF
:102510008502F09186020284F385E02D85E892E041
:10252000099597FF1FC00E94A31A00918D02109178
:102530008E0220918F0230919002DC01CB01801B32
:10254000910BA20BB30B0091890210918A0220918A
:102550008B0230918C0280179107A207B307B8F263
:102560008FEF9FEF1F910F910895FC018081918162
:10257000009711F00C94EB2660E070E0CB01089519
:10258000FC0180819181009711F00C94EF2660E0AE
:1025900070E0CB010895EF92FF920F931F93CF93BA
:1025A000DF93FC01248135816115710511F480E010
:1025B00019C041155105A9F07B01EC018A01020FF8
:1025C000131FB8010E94B30F882389F32881398132
:1025D0008C819D81B701820F931F0E9408311D835A
:1025E0000C8381E0DF91CF911F910F91FF90EF90CD
:1025F00008950F931F93CF93DF9300D0CDB7DEB72D
:102600008C0169831A8241E050E0BE016F5F7F4F09
:102610000E94CB12811103C0C8010E944E0FC80155
:102620000F900F90DF91CF911F910F910895CF934D
:10263000DF93EC01FB0144815581608171810E942F
:10264000CB12811103C0CE010E944E0FCE01DF914B
:10265000CF910895CF93DF93EC016115710559F087
:10266000FB0101900020E9F73197AF01461B570BA2
:102670000E94DA0F02C00E944E0FCE01DF91CF916F
:102680000895CF93DF93EC01FB018617970761F064
:10269000608171816115710529F0448155810E9425
:1026A000DA0F02C00E944E0FCE01DF91CF91089544
:1026B0000F931F93CF93DF938C01EB01FC0180817B
:1026C00091810097B1F0688179816115710579F088
:1026D000428153812C813D814217530740F00E9473
:1026E00008318C819D81F8019583848313C00E94F9
:1026F0008B2F88819981F801918380838A819B81C6
:10270000938382838C819D8195838483198218822F
:102710001B821A821D821C82DF91CF911F910F9123
:102720000895FC01808191810C948B2FEF92FF9290
:102730000F931F93CF93DF93CDB7DEB7A1970FB65B
:10274000F894DEBF0FBECDBF7C01CB01BA01F7010B
:1027500011821082138212821582148242E0420F8B
:102760008E010F5F1F4F0E94CB26BC01C7010E9444
:102770002A13A1960FB6F894DEBF0FBECDBFDF912E
:10278000CF911F910F91FF90EF900895CF93DF931A
:1027900000D0CDB7DEB7FC01118210821382128205
:1027A0001582148269831A82BE016F5F7F4F0E9477
:1027B0002A130F900F90DF91CF910895FC011182A1
:1027C000108213821282158214820C944113FC0130
:1027D0001182108213821282158214826115710592
:1027E00051F0FB0101900020E9F73197AF01461B42
:1027F000570B0C94DA0F08958091740190E02091AA
:102800007501821B91090895209178013091790119
:102810002817390771F49091760180917701981704
:1028200041F0E0917601F0E0EE51FC4F808190E0C4
:1028300008958FEF9FEF089508951F93CF93DF932F
:10284000DC015C962D913C915D972115310539F4A1
:1028500081E090E013969C938E9312973DC0519621
:10286000ED91FC91529750969C915097892F8095AD
:102870001FB75E964C915E9741FB772770F941FD3B
:102880006095F8944081772311F0492B01C04823CB
:102890004083E9012197F1F748E0508160FF02C0D1
:1028A000592B01C058235083E9012197F1F7669510
:1028B000415099F7772321F090818923808303C0C9
:1028C0008081982B90831FBF5C968D919C915D9722
:1028D0000197F1F721E030E0C901DF91CF911F911D
:1028E000089520917801309179012817390771F402
:1028F000809177012091760190E0805C9F4F821B50
:10290000910960E470E00E94A62E089580E090E0B6
:102910000895209178013091790128173907B9F489
:102920009091760180917701981789F0E091760176
:10293000F0E0EE51FC4F80812091760130E02F5F76
:102940003F4F2F7333272093760190E008958FEF48
:102950009FEF089585ED8093BC008091BC0084FDBD
:10296000FCCF1092600208954091BD03262F30E005
:10297000240F311D21323105DCF420916002243016
:10298000C9F4FC0180E090E0861758F43091BD0353
:102990002191DC01A556BC4FA30FB11D2C930196CC
:1029A000F3CF8091BD03680F6093BD0380E008956D
:1029B00081E0089582E008950895E0917501809185
:1029C0007401E81730F4F0E0EE5DFB4F808190E099
:1029D00008958FEF9FEF0895909175018091740194
:1029E000981750F4E92FF0E0EE5DFB4F208130E0C6
:1029F0009F5F9093750102C02FEF3FEFC9010895CB
:102A0000CF92DF92EF92FF920F931F93CF93DF93BA
:102A10007C01262F972F8A0180916102882391F0F3
:102A2000C62FD72F6E01C40ED51ECC15DD0571F053
:102A30006991D701ED91FC910190F081E02DC701E2
:102A40000995F3CF642F822F0E94B414C801DF913F
:102A5000CF911F910F91FF90EF90DF90CF9008954D
:102A6000CF93DF931F92CDB7DEB7698320916102C8
:102A70002223D1F020918402203240F021E030E086
:102A8000FC013383228380E090E015C080916202D4
:102A9000E82FF0E0ED59FD4F998190838F5F80938F
:102AA00062028093840205C061E0CE0101960E941B
:102AB000B41481E090E00F90DF91CF9108950895D4
:102AC00080E090E008952F923F924F925F926F9234
:102AD0007F928F929F92AF92BF92CF92DF92EF92AE
:102AE000FF920F931F93CF93DF93CDB7DEB7279756
:102AF0000FB6F894DEBF0FBECDBFE82E6B834F83B9
:102B000069010E94A31A4B015C016E2C660CF12C2A
:102B10001E82772473945F81452F50E05D834C8340
:102B20001801412C512C4F81F41608F099C0709275
:102B30006102E092830210926202109284026B8121
:102B400082E293E00E9430150E94FB0F70926102B6
:102B5000E0928302109262021092840280916002DD
:102B60008111FCCF2C813D812F1931092132310592
:102B700014F020E230E0213208F020E2709260028E
:102B800070925F028FEF80935E0210925D02820F5F
:102B900080935C0270923B0280913B028629809375
:102BA0003B0280913A02813071F410923A02809196
:102BB0003B028093BB008091BC0083FDF8CF95EC75
:102BC0009093BC0003C0E5EEE093BC0080916002EE
:102BD0008130E1F380915D02821710F420915D0253
:102BE000ACE3B2E0E2E2F4E08E2F42E254E0841B78
:102BF000821718F48D918193F7CF1092750120936D
:102C000074019091740180917501981719F1011563
:102C1000110599F4A6012E81420F511D27FD5A95E9
:102C20005A83498382E293E00E94EC14E981FA819D
:102C300080832E812F5F2E83E4CF0E94A31ADC01B4
:102C4000CB0188199909AA09BB0982159305A40526
:102C5000B50500F38F81813208F080E2F80E63CF72
:102C6000FE8001151105D9F00E94A31ADC01CB01E9
:102C700088199909AA09BB0920E030E0801791075B
:102C8000A207B30760F05F81252F30E08F2D0F2C56
:102C9000000C990B8217930714F4FF24FA948F2DDC
:102CA00027960FB6F894DEBF0FBECDBFDF91CF9150
:102CB0001F910F91FF90EF90DF90CF90BF90AF905A
:102CC0009F908F907F906F905F904F903F902F904C
:102CD00008951F920F920FB60F9211242F933F93D6
:102CE0004F935F936F937F938F939F93AF93BF9314
:102CF000EF93FF93E0917801F0917901309709F417
:102D000051C0968DA685B785858591FF04C09C919D
:102D1000892329F447C09C91892309F043C0A389E2
:102D2000B4899C918589809589238C93868997891C
:102D30000197F1F7608D718DA685B785558538E0CF
:102D400020E0CB010197F1F7822F90E095958795D0
:102D5000282F4C91452309F02068315091F7868D3A
:102D600081FD20958091770190E001968F739927DE
:102D700030917601381749F0A0917701B0E0AE515B
:102D8000BC4F2C938093770103C0868D8160868F22
:102D9000828D938D0197F1F7A389B4899C918589E0
:102DA000892B8C93FF91EF91BF91AF919F918F9160
:102DB0007F916F915F914F913F912F910F900FBE37
:102DC0000F901F901895E0917801F0917901E81724
:102DD000F90769F4A389B4899C9185898095892331
:102DE0008C93109279011092780181E0089580E02F
:102DF00008951F920F920FB60F9211242F933F93B5
:102E00004F935F936F937F938F939F93AF93BF93F2
:102E1000EF93FF938091B900887F803609F49CC0BE
:102E200068F5883209F45BC090F4803109F454C02D
:102E300038F4882309F4F6C0883009F44DC0F6C090
:102E4000883109F44CC0803209F45DC0EFC0803491
:102E500009F468C048F4803309F455C0883309F098
:102E6000E5C080935E02D8C0803509F44FC0883534
:102E700009F45DC0883409F0D9C0D6C0883909F496
:102E8000C7C0A8F4883709F467C038F4883609F455
:102E900063C0803709F460C0C9C0883809F4B8C07D
:102EA000803909F45FC0803809F0C0C05BC0803B46
:102EB00009F486C038F4803A09F466C0883A09F407
:102EC0007FC0B4C0803C09F4A7C0883C09F4A4C00A
:102ED000883B09F48AC0AAC080913B0210C090913F
:102EE0005D0280915C02981770F5E0915D0281E0CF
:102EF0008E0F80935D02F0E0E45CFD4F8081809353
:102F0000BB0085EC86C080935E028EC0E0915D02BE
:102F100081E08E0F80935D028091BB00F0E0E45C65
:102F2000FD4F808390915D0280915C026EC0E091C4
:102F30005D0281E08E0F80935D028091BB00F0E026
:102F4000E45CFD4F808380915F0281116DC081E060
:102F500080933A0284EA61C083E080936002109219
:102F6000E103CFCF8091E103803208F051C0E091BE
:102F7000E10381E08E0F8093E1038091BB00F0E0DC
:102F8000EF53FC4F8083BDCF85EC8093BC00109243
:102F900060028091E103803230F4E091E103F0E0DF
:102FA000EF53FC4F10826091E10370E0E091BF03AA
:102FB000F091C00381EC93E009951092E10336C0D3
:102FC00084E0809360021092BE031092BD03E091F2
:102FD000BB03F091BC0309958091BD03811105C02D
:102FE00081E08093BD0310929B03E091BE0381E0DA
:102FF0008E0F8093BE03F0E0E556FC4F80818093F6
:10300000BB009091BE038091BD03981708F479CF5F
:1030100085E88093BC000AC085EC8093BC001092C8
:10302000600204C010925E020E94AA14FF91EF9108
:10303000BF91AF919F918F917F916F915F914F91D0
:103040003F912F910F900FBE0F901F901895FC018C
:10305000538D448D252F30E0842F90E0821B930BFD
:10306000541710F0CF96089501970895FC01918DA3
:10307000828D981761F0828DDF01A80FB11D5D96DA
:103080008C91928D9F5F9F73928F90E008958FEF48
:103090009FEF0895FC01918D828D981731F0828DFC
:1030A000E80FF11D858D90E008958FEF9FEF089553
:1030B000FC01918D228D892F90E0805C9F4F821BB7
:1030C00091098F739927089585E892E00E94581816
:1030D00021E0892B09F420E0822F0895FC01848DE2
:1030E000DF01A80FB11DA35ABF4F2C91848D90E032
:1030F00001968F739927848FA689B7892C93A0890D
:10310000B1898C9180648C93938D848D981306C0C3
:103110000288F389E02D80818F7D80830895EF926E
:10312000FF920F931F93CF93DF93EC0181E0888F81
:103130009B8D8C8D981305C0E889F989808185FD68
:1031400024C0F62E0B8D10E00F5F1F4F0F73112759
:10315000E02E8C8DE8120CC00FB607FCFACFE88980
:10316000F989808185FFF5CFCE010E946E18F1CFDD
:103170008B8DFE01E80FF11DE35AFF4FF0820B8F9C
:10318000EA89FB898081806207C0EE89FF896083BC
:10319000E889F98980818064808381E090E0DF9113
:1031A000CF911F910F91FF90EF900895CF93DF93F0
:1031B000EC01888D8823C9F0EA89FB89808185FD2F
:1031C00005C0A889B9898C9186FD0FC00FB607FC90
:1031D000F5CF808185FFF2CFA889B9898C9185FFD1
:1031E000EDCFCE010E946E18E7CFDF91CF91089509
:1031F00080E090E0892B29F00E94641881110C94E2
:10320000000008953FB7F8948091470490914804D6
:10321000A0914904B0914A0426B5A89B05C02F3F50
:1032200019F00196A11DB11D3FBFBA2FA92F982FEC
:103230008827820F911DA11DB11DBC01CD0142E067
:10324000660F771F881F991F4A95D1F70895089533
:103250000E94ED301F920F920FB60F9211242F9300
:103260003F934F935F936F937F938F939F93AF930E
:10327000BF93EF93FF9385E892E00E946E18FF9151
:10328000EF91BF91AF919F918F917F916F915F91DE
:103290004F913F912F910F900FBE0F901F90189557
:1032A0001F920F920FB60F9211242F938F939F931B
:1032B000EF93FF93E0919502F09196028081E09167
:1032C0009B02F0919C0282FD12C0908180919E022F
:1032D0008F5F8F7320919F02821751F0E0919E02C1
:1032E000F0E0EB57FD4F958F80939E0201C08081E7
:1032F000FF91EF919F918F912F910F900FBE0F90A3
:103300001F90189590E0FC01E750F54F3491FC01B7
:10331000E552F54F2491FC01E953F54FE491EE237A
:1033200009F43BC0332339F1333091F038F43130B4
:10333000A9F0323001F584B58F7D12C0373091F09D
:103340003830A1F03430B9F4809180008F7D03C013
:10335000809180008F77809380000DC084B58F7737
:1033600084BD09C08091B0008F7703C08091B00008
:103370008F7D8093B000F0E0EE0FFF1FED54F54F0E
:10338000A591B4918FB7F894EC91611103C0209589
:103390002E2301C02E2B2C938FBF0895CF93DF9344
:1033A00090E0FC01E552F54F2491FC01E953F54F03
:1033B0008491882361F190E0880F991FFC01E1510D
:1033C000F54FC591D491FC01ED54F54FA591B49101
:1033D000611109C09FB7F894888120958223888362
:1033E000EC912E230BC0623061F49FB7F8943881C2
:1033F000822F809583238883EC912E2B2C939FBF63
:1034000006C08FB7F894E8812E2B28838FBFDF91F9
:10341000CF9108951F93CF93DF93182FEB0161E0B5
:103420000E94CE19209711F460E004C0CF3FD1056F
:1034300039F461E0812FDF91CF911F910C948219B3
:10344000E12FF0E0E750F54FE491E330F9F048F474
:10345000E130B9F0E230A1F584B5806284BDC8BD29
:1034600034C0E730E9F0E83019F1E43049F58091F3
:103470008000806280938000D0938B00C0938A008C
:1034800024C084B5806884BDC7BD1FC08091800002
:10349000806880938000D0938900C093880015C015
:1034A0008091B00080688093B000C093B3000DC0DD
:1034B0008091B00080628093B000C093B40005C0DA
:1034C000C038D1050CF0B5CFAFCFDF91CF911F91B0
:1034D00008958F929F92AF92BF92CF92DF92EF9218
:1034E000FF926B017C010E9402194B015C01C11427
:1034F000D104E104F104F1F00E940219DC01CB01D6
:1035000088199909AA09BB09883E9340A105B1050C
:1035100070F321E0C21AD108E108F10888EE880EA4
:1035200083E0981EA11CB11CC114D104E104F10474
:1035300019F7DDCFFF90EF90DF90CF90BF90AF9065
:103540009F908F9008952FB7F894609143047091E5
:10355000440480914504909146042FBF08951F9222
:103560000F920FB60F9211242F933F938F939F9337
:10357000AF93BF938091430490914404A09145047C
:10358000B09146043091420423E0230F2D3720F4FC
:103590000196A11DB11D05C026E8230F0296A11DAD
:1035A000B11D209342048093430490934404A0935C
:1035B0004504B09346048091470490914804A0913B
:1035C0004904B0914A040196A11DB11D809347049E
:1035D00090934804A0934904B0934A04BF91AF91DB
:1035E0009F918F913F912F910F900FBE0F901F9041
:1035F00018951F920F920FB60F9211242F933F939D
:103600004F935F936F937F938F939F93AF93BF93EA
:10361000EF93FF93E0911A01F0911B010995FF913F
:10362000EF91BF91AF919F918F917F916F915F913A
:103630004F913F912F910F900FBE0F901F901895B3
:103640001F920F920FB60F9211242F933F934F9317
:103650005F936F937F938F939F93AF93BF93EF93FA
:10366000FF93E0911801F09119010995FF91EF91F5
:10367000BF91AF919F918F917F916F915F914F918A
:103680003F912F910F900FBE0F901F901895EF92C2
:10369000FF920F931F93CF93DF9300D0CDB7DEB788
:1036A000142F91E090936102809383021092620242
:1036B0001092840282E293E029833A830E943015BB
:1036C0002981022FE22E3A81F32E8E2D801B811745
:1036D00040F4F70161917F0182E293E00E9430158E
:1036E000F4CF0E94FB0F91E0811190E0892F0F90A1
:1036F0000F90DF91CF911F910F91FF90EF90089560
:103700001F93CF93DF9300D0CDB7DEB75A834983A1
:1037100091E0909361028093830210926202109272
:10372000840282E293E00E94301519816A8182E26C
:1037300093E00E943015612F82E293E00E943015E1
:103740000E94FB0F91E0811190E0892F0F900F9064
:10375000DF91CF911F910895CF93DF931F92CDB743
:10376000DEB749839E012F5F3F4F41E00E94471B18
:103770000F90DF91CF910895BF92CF92DF92EF9299
:10378000FF920F931F93CF93DF931F92CDB7DEB7B6
:10379000F82EE62EC42EB22ED02E08EE13E09E0197
:1037A0002F5F3F4F41E00E946315882321F1EC2DEC
:1037B000F0E0EB19F109319621E030E002C0220F70
:1037C000331FBA94E2F7215031090E2E01C0220FA7
:1037D0000A94EAF78D2D01C0880FEA95EAF7422F87
:1037E0004095998149232823422B49836E2D8F2DA3
:1037F0000E94AC1B01C080E00F90DF91CF911F9120
:103800000F91FF90EF90DF90CF90BF900895CF92EF
:10381000DF92EF92FF920F931F93CF93DF931F924C
:10382000CDB7DEB7F82EE62ED42EC22E08EE13E06A
:103830009E012F5F3F4F41E00E9463159981CC208C
:1038400041F041E050E001C0440FDA94EAF7492B1F
:1038500009C021E030E0A90101C0440FDA94EAF781
:103860004095492349836E2D8F2D0E94AC1B0F90EC
:10387000DF91CF911F910F91FF90EF90DF90CF904C
:103880000895CF93DF93CDB7DEB7C65AD1090FB6EF
:10389000F894DEBF0FBECDBF789484B5826084BD3E
:1038A00084B5816084BD85B5826085BD85B5816044
:1038B00085BD80916E00816080936E0010928100C2
:1038C000809181008260809381008091810081607D
:1038D000809381008091800081608093800080913E
:1038E000B10084608093B1008091B00081608093CA
:1038F000B00080917A00846080937A0080917A0091
:10390000826080937A0080917A00816080937A004F
:1039100080917A00806880937A001092C1001092A2
:10392000750110927401109262021092840210923A
:10393000600211E010935F0210923A0261E082E1AE
:103940000E94821961E083E10E9482198091B9008E
:103950008E7F8093B9008091B9008D7F8093B900EC
:1039600088E48093B80085E48093BC00E0919502E0
:10397000F091960282E08083E0919102F0919202B0
:103980001082E0919302F0919402108310929D02B4
:10399000E0919902F0919A0286E08083E09197028B
:1039A000F0919802808180618083E0919702F0918C
:1039B0009802808188608083E0919702F09198025C
:1039C000808180688083E0919702F09198028081E5
:1039D0008F7D808310924F0310924E0310924D03FF
:1039E00010924C0310924B0310924A038DE991E020
:1039F000909351038093500390914003963108F0C7
:103A000057C02DEB30E030934B0320934A032BE952
:103A100031E030934D0320934C032CE231E030939E
:103A20004F0320934E0320916800983050F031E00E
:103A30009E3008F430E081E001C0880F3A95EAF743
:103A400001C084E0822B80936800983038F09E306B
:103A500040F0963148F020E030E008C02DE630E03C
:103A600005C02BE630E002C02CE630E0309348037E
:103A700020934703983030F481E001C0880F9A9575
:103A8000EAF70EC0292F30E09E3018F42850310993
:103A900002C02E50310981E001C0880F2A95EAF753
:103AA0008093490380915003909151030197F1F75E
:103AB00080914E0390914F03892B21F180917801E1
:103AC0009091790123E084339207E1F0009711F09F
:103AD0000E94E316809152038E7F809352031092CE
:103AE00077011092760184E393E0909379018093BB
:103AF0007801E0914703F091480390818091490358
:103B0000892B808361E085E00E94CE1961E086E028
:103B10000E94CE1961E087E00E94CE1961E088E042
:103B20000E94CE1961E089E00E94CE1961E08AE02E
:103B30000E94CE1961E08DE00E94CE1961E08CE018
:103B40000E94CE1901E023E042E06BE68091700311
:103B50000E94BC1B00E022E044E06BE18091700316
:103B60000E94BC1B22E044E06CE1809170030E9443
:103B7000BC1B20E046E06BE6809170030E94071CAE
:103B800068EE73E080E090E00E94691A28EE33E06E
:103B900041E753E065E7809170030E9456118091E0
:103BA0007103843309F09DC381E090E00E94B70661
:103BB00021E047E06BE6809170030E94071C6EE1F4
:103BC00070E080E090E00E94691A20E046E06BE639
:103BD000809170030E94071C40E76DE6809170039E
:103BE0000E94AC1B86E00E945F1040E06DE6809171
:103BF00070030E94AC1B28EE33E041E753E060E025
:103C0000809170030E9456118090710328EE33E07A
:103C100041E753E061E0809170030E94561190905B
:103C2000710328EE33E041E753E062E080917003D6
:103C30000E945611A09071034FE765E280917003D6
:103C40000E94AC1B20E045E06AE6809170030E9470
:103C5000071C48E665E2809170030E94AC1B21E0DE
:103C600041E06AE6809170030E94071C64E170E005
:103C700080E090E00E94691A01E020E040E069E8FD
:103C800077E08AE293E00E946510882309F4D5C2A8
:103C900088E090E00E94F62EB82E192FE12CF12C2E
:103CA000F701E659FD4F4491F701E559FD4F249185
:103CB000670183E0C80ED11CF701E459FD4FE49180
:103CC000EE23D1F1EE2EF12CE330D8F0B7018B2D9D
:103CD000912FCA55DF4F2883C65AD040CB55DF4FAE
:103CE0004883C55AD0400E942330B82E192FCB5597
:103CF000DF4F4881C55AD040CA55DF4F2881C65A88
:103D0000D040AB2DB12F80E090E08E159F0548F498
:103D1000F601E80FF91FE659FD4FE491ED93019686
:103D2000F4CF00E0B7018B2D912F0E946510EC0CB1
:103D3000FD1C811117C010C0F601E659FD4FE4913A
:103D4000E13051F494E0E90EF11C42E368E3809124
:103D500070030E94AC1B06C08B2D912F0E948B2FED
:103D600012E06CC2A0ECEA16F10408F499CF8B2D96
:103D7000912F0E948B2F03E023E042E06BE68091BD
:103D800070030E94BC1B42E168E3809170030E94B3
:103D9000AC1B44E069E1809170030E94AC1B01E020
:103DA00023E045E06AE1809170030E94BC1B03E0C0
:103DB00023E042E06AE1809170030E94BC1B22E094
:103DC00044E06BE1809170030E94BC1B43E060E71C
:103DD000809170030E94AC1B40E061E7809170030A
:103DE0000E94AC1B20E040E060E0809170030E94E4
:103DF000071C082D26E046E060E0809170030E94D9
:103E0000BC1B092D26E046E061E0809170030E9412
:103E1000BC1B0A2D26E046E062E0809170030E9400
:103E2000BC1BE12CF12CF701E55CFD4FE491A1E80E
:103E3000B0E0AC0FBD1FAE0DB11DEC9381E08E0D57
:103E4000BFEFEB1AFB0A23E02E1568F7CD57DF4FC3
:103E50006881C358D04070E09B012E5F3F4F90E0D7
:103E60002817390704F700E0CE57DF4F2881C258E2
:103E7000D040CF57DF4F4881C158D04081E890E013
:103E80008C0F9D1F03960E94651080E0F701E55C92
:103E9000FD4FE491A1E8B0E0AC0FBD1FA80FB11D2C
:103EA000EC938F5F9FEFE91AF90A843078F3CD57CE
:103EB000DF4F6881C358D04070E0AB014E5F5F4F69
:103EC000282F30E0421753070CF700E0CE57DF4FA2
:103ED0002881C258D040CF57DF4F4881C158D040C9
:103EE00081E890E08C0F9D1F03960E9465100E9450
:103EF00058100E943C11682FCE0101960E94291192
:103F000042E06FE1809170030E94AC1B4CE961E2DA
:103F1000809170030E94AC1B40E560E280917003C9
:103F20000E94AC1B40E062E2809170030E94AC1BD7
:103F30000E94581021E046E06AE6809170030E94DA
:103F4000071C21E047E06AE6809170030E94071C8D
:103F500021E043E06AE6809170030E94071C80E044
:103F6000F701E55CFD4FE491A1E8B0E0AC0FBD1FA7
:103F7000A80FB11DEC938F5FAFEFEA1AFA0A8430F5
:103F800078F3CD57DF4F6881C358D04070E0AB0164
:103F90004E5F5F4F282F30E0421753070CF700E0C9
:103FA000CE57DF4F2881C258D040CF57DF4F4881CE
:103FB000C158D04081E890E08C0F9D1F03960E946D
:103FC000651080E0F701E55CFD4FE491A1E8B0E009
:103FD000AC0FBD1FA80FB11DEC938F5FBFEFEB1AA5
:103FE000FB0A843078F3CD57DF4F6881C358D04047
:103FF00070E0AB014E5F5F4F282F30E04217530750
:104000000CF700E0CE57DF4F2881C258D040CF5781
:10401000DF4F4881C158D04081E890E08C0F9D1F50
:1040200003960E94651080E0F701E55CFD4FE49186
:10403000A1E8B0E0AC0FBD1FA80FB11DEC938F5FDE
:104040002FEFE21AF20A843078F3CD57DF4F688100
:10405000C358D04070E0AB014E5F5F4F282F30E077
:10406000421753070CF700E0CE57DF4F2881C258A4
:10407000D040CF57DF4F4881C158D04081E890E011
:104080008C0F9D1F03960E9465100E943C11833087
:104090009105D8F3682FCE0101960E94291180E086
:1040A000F701E55CFD4FE491A1E8B0E0AC0FBD1F66
:1040B000A80FB11DEC938F5F9FEFE91AF90A8430C6
:1040C00078F3CD57DF4F3880C358D040832C912CE4
:1040D000A4014E5F5F4F282F30E04217530704F7CB
:1040E000CE57DF4FB880C258D040CF57DF4F28801F
:1040F000C158D040422D4F716DE6809170030E94EF
:10410000AC1B8B2D0E945F10C12CD12C612C77240D
:10411000739441E8442E512C4C0E5D1EA3E04A0ED0
:10412000511CC814D90498F5C60140968816990602
:1041300018F4A32CAC1802C020E1A22E8A2D90E026
:1041400093012B1931092817390714F4AB2CA194CA
:1041500092012C0D3D1D08EE13E04A2D6FE6809173
:1041600070030E946315CA0CD11CBA0CC814D90480
:10417000C0F6B11001C02394422D4F716DE68091BD
:1041800070030E94AC1B8B2D0E945F10CACF0E944F
:104190003C1183309105D8F3682FCE0101960E941F
:1041A0002911F701E55CFD4F80E09491A1E8B0E0B2
:1041B000AC0FBD1FA80FB11D9C938F5F843010F40E
:1041C0003196F3CFCD57DF4F6881C358D04070E0B0
:1041D000AB014E5F5F4F282F30E04217530784F743
:1041E00000E0CE57DF4F2881C258D040CF57DF4F75
:1041F0004881C158D04081E890E08C0F9D1F039604
:104200000E94651020E047E06AE6809170030E94FA
:10421000071C8AE290E090937303809372030E94DC
:10422000581008EE13E021E733E041E06AE38091A3
:1042300070030E94631510E001C011E01093CF01DC
:104240004BE159EF66E0809170030E94801B47E2CA
:1042500055EF68E0809170030E94801B4DE854E0A8
:104260006AE0809170030E94801B40E650E063E1A9
:10427000809170030E94801B40EE5FEF65E18091AA
:1042800070030E94801B48E150E067E18091700359
:104290000E94801B111134C021E047E06AE6809142
:1042A00070030E94071C81E08093CE01809172030D
:1042B0009091730390937B0180937A0181E090E069
:1042C0000E94B70660E177E280E090E00E94691A00
:1042D00061E08DE00E9482190E946B0D02E010E007
:1042E000D8C082E090E00E94B7069DE088E10FB65A
:1042F000F894A895809360000FBE90936000FFCF64
:1043000082E090E00E94B7069DE088E10FB6F89445
:10431000A895809360000FBE90936000FFCF20E0CF
:1043200030E040EA51E4C701B6010E94352E18166C
:104330000CF4C1C00E941D0780919A03823008F0DE
:10434000BDC0F8948FE893E00E946A0E80919603B6
:1043500090919703A0919803B091990378949195C7
:104360008195910990937F0180937E0180918E03C6
:10437000823008F0A5C0F89483E893E00E946A0EAA
:1043800080918A0390918B03A0918C03B0918D034F
:10439000789490937D0180937C0180917E0190912F
:1043A0007F01815D9A488F359A4E10F00E94EE0A87
:1043B00080917C0190917D01815D9A488F359A4E64
:1043C00010F00E94EE0A60917C0170917D01072E31
:1043D000000C880B990B0E94162B6B017C018091BD
:1043E0007E0190917F01BC01990F880B990B0E946F
:1043F000162B9B01AC01C701B6010E94882C20E05E
:1044000030E040E05FE30E94752B4B015C0160935C
:1044100098017093990180939A0190939B010E9457
:104420002C0B0E94A31A6B017C010E94162B2B01FE
:104430003C016091C6017091C7018091C8019091C3
:10444000C9010E94162B9B01AC01C301B2010E945D
:10445000872C20E030E04AE754E40E94662DC356E2
:10446000DF4F688379838A839B83CD59D0406093E3
:10447000C2017093C3018093C4019093C5012AE0E7
:1044800037ED43E25CE30E94352E87FF1BC00E949C
:10449000F818C090CA01D090CB01E090CC01F09008
:1044A000CD0120E030E040EA51ECC701B6010E94A6
:1044B0000F2B87FF34CF0E946B0D3CCFF89446CF73
:1044C000F8945ECFC092C601D092C701E092C801B5
:1044D000F092C9012091940130919501409196018B
:1044E00050919701C501B4010E94872C2B013C011A
:1044F000209190013091910140919201509193014E
:104500000E94882C6B017C01609390017093910153
:10451000809392019093930120E030E0A901609193
:104520008C0170918D0180918E0190918F010E947C
:104530000F2B87FF04C0F7FAF094F7F8F094C092BD
:10454000D001D092D101E092D201F092D301C0907B
:104550008801D0908901E0908A01F0908B0120E0E1
:1045600030E0A901C701B6010E940F2B882371F02A
:10457000A70196016091D0017091D1018091D20183
:104580009091D3010E94352E87FD10C010928C01AE
:1045900010928D0110928E0110928F01109288015D
:1045A0001092890110928A0110928B0120918C0146
:1045B00030918D0140918E0150918F016091840165
:1045C0007091850180918601909187010E94882CCD
:1045D0006093840170938501809386019093870195
:1045E000A50194010E94872CCF55DF4F6883798302
:1045F0008A839B83C15AD0406093D4017093D501C4
:104600008093D6019093D701C356DF4F288139811B
:104610004A815B81CD59D040C301B2010E94662D11
:104620006B017C0160938001709381018093820112
:10463000909383012091040130910501409106017E
:1046400050910701CF55DF4F688179818A819B8125
:10465000C15AD0400E94752B2B013C0120910001D2
:10466000309101014091020150910301C701B6014F
:104670000E94752B9B01AC01C301B2010E94872CE3
:104680008092940190929501A0929601B092970128
:1046900029E532EE4DEF5BE30E94752B20E030E020
:1046A00040E050E40E94872C6093A4017093A50120
:1046B0008093A6019093A7014090CA015090CB012E
:1046C0006090CC017090CD01A30192010E94872CD3
:1046D0006B017C016093D8017093D9018093DA015A
:1046E0009093DB012091A0013091A1014091A201A2
:1046F0005091A301C301B2010E94872CC356DF4F22
:10470000288139814A815B81CD59D0400E94662D34
:104710004B015C0160939C0170939D0180939E010D
:1047200090939F0120910C0130910D0140910E0159
:1047300050910F01C701B6010E94752B6B017C01DE
:10474000209108013091090140910A0150910B011B
:10475000C501B4010E94752B9B01AC01C701B601D4
:104760000E94872C6093BE017093BF018093C001AB
:104770009093C1014092A0015092A1016092A201C8
:104780007092A30127E0CF55DF4F488159816A819C
:104790007B81C15AD040CE0189569F4F0E9496130B
:1047A0004091D8015091D9016091DA017091DB01FB
:1047B00027E0CE018F569F4F0E9496136BE5CE01E6
:1047C00001960E94C613BE0169567F4FCE01019625
:1047D0000E9417136CE20E94F912BE016F567F4FC0
:1047E0000E9417136DE50E94F912BC01CE018F578C
:1047F0009F4F0E94DE13CE0101960E949113BE01CD
:104800006F577F4FCE0101960E94DE13BE016F5F8E
:104810007F4F8AE60E94E306CE0101960E94911323
:104820001092B1011092B001CE018F579F4F0E949C
:104830009113CE018F569F4F0E949113CE0189563E
:104840009F4F0E949113C090AC01D090AD01E090B9
:10485000AE01F090AF0120E030E044E353E4C70143
:10486000B6010E940F2BA701960187FF04C060E0EC
:1048700070E0CB0104C060E070E084EB93E40E9440
:10488000872C6093BA017093BB018093BC01909315
:10489000BD01C090BA01D090BB01E090BC01F09086
:1048A000BD0120E030E044E353E4C701B6010E94BB
:1048B0000F2B2091A8013091A9014091AA0150919C
:1048C000AB0118162CF0C701B6010E94882C04C059
:1048D000C701B6010E94872C6093BA017093BB0197
:1048E0008093BC019093BD01C090BA01D090BB01F0
:1048F000E090BC01F090BD0120E030E044E353E4DF
:10490000C701B6010E94352E18164CF420E030E0A5
:1049100044EB53E4C701B6010E94872C12C020E08B
:1049200030E044E353ECC701B6010E940F2B87FF30
:1049300010C020E030E044EB53E4C701B6010E9410
:10494000882C6093BA017093BB018093BC01909353
:10495000BD012BED36EB41E951E46091BE01709150
:10496000BF018091C0019091C1010E94752B6B0124
:104970007C014090BA015090BB016090BC017090E6
:10498000BD01A30192010E94872C4B015C01609341
:10499000B6017093B7018093B8019093B901A30158
:1049A0009201C701B6010E94882C6B017C016093C3
:1049B000B2017093B3018093B4019093B50120E0EC
:1049C00030E0A901C501B4010E940F2B87FF17C079
:1049D00060E087E00E94821961E088E00E9482190D
:1049E0006091160170911701072E000C880B990B2E
:1049F0000E94162BA50194010E94872C18C061E02B
:104A000087E00E94821960E088E00E94821960912C
:104A1000140170911501072E000C880B990B0E9450
:104A2000162B9B01AC01C501B4010E94882C609338
:104A3000B6017093B7018093B8019093B90120E05B
:104A400030E0A901C701B6010E940F2B87FF17C0F4
:104A500061E085E00E94821960E086E00E94821990
:104A60006091120170911301072E000C880B990BB5
:104A70000E94162BA70196010E94872C18C060E0A7
:104A800085E00E94821961E086E00E9482196091AF
:104A9000100170911101072E000C880B990B0E94D8
:104AA000162B9B01AC01C701B6010E94882C6093B4
:104AB000B2017093B3018093B4019093B50120E0EB
:104AC00030E040E05FE36091B6017091B701809102
:104AD000B8019091B9010E94882C0E94D82D6B01D9
:104AE0008FEFC816D10421F01CF0CC24CA94D12C2D
:104AF00020E030E040E05FE36091B2017091B301EB
:104B00008091B4019091B5010E94882C0E94D82D0B
:104B10007B019FEFE916F10421F01CF0EE24EA94EA
:104B2000F12CB601D7FE02C060E070E08AE00E947E
:104B30000A1AB701F7FE02C060E070E089E00E9447
:104B40000A1A1093B1010093B001A1CC8EE293E058
:104B50000E9491138CE491E0909335038093340389
:104B600084E393E00C94E316CF92DF92EF92FF92EE
:104B7000109288021092870298EEC92E93E0D92EE7
:104B8000E12CF12CC0928902D0928A02E0928B0231
:104B9000F0928C0288E291E09093860280938502E5
:104BA00085EC90E0909392028093910284EC90E0E7
:104BB000909394028093930280EC90E090939602FD
:104BC0008093950281EC90E09093980280939702F5
:104BD00082EC90E090939A028093990286EC90E0A8
:104BE00090939C0280939B0210929E0210929F02CF
:104BF0001092A0021092A102109225031092240399
:104C0000C0922603D0922703E0922803F092290352
:104C10008AE391E090932303809322034BE063E0C7
:104C20008FE893E00E94B80E44E062E083E893E0EE
:104C30000E94B80E88E68093700380E090E0A0E8C0
:104C4000BFE380935F0390936003A0936103B093ED
:104C50006203109263031092640310926503109232
:104C60006603109267031092680310926903109212
:104C70006A0310926B0310926C0310926D031092F2
:104C80006E03109253031092540310925503109226
:104C90005603109257031092580310925903109222
:104CA0005A0310925B0310925C0310925D03109202
:104CB0005E031092370310923603C0923803D092ED
:104CC0003903E0923A03F0923B038CE491E0909335
:104CD00035038093340310924B0310924A031092D1
:104CE0004D0310924C0310924F0310924E031092FA
:104CF000510310925003609152036E7F6D7F609359
:104D000052036695617081E068278EE00E948219E7
:104D100061E08EE00E94CE19E9EEFAE0E491E093C2
:104D20004403E5EDFAE0E491F0E0EE0FFF1FED54EF
:104D3000F54F85919491909346038093450360E0ED
:104D40008FE00E94CE198091520381FD04C061E082
:104D50008FE00E9482198FE080934003EAEEFAE030
:104D6000E491E0934103E6EDFAE0E491F0E0EE0F28
:104D7000FF1FE354F54F85919491909343038093E3
:104D8000420362E671E08EE293E0FF90EF90DF90E5
:104D9000CF900C94E713EF920F931F93CF93DF9371
:104DA000E80147FD02C034E001C034E1E42F440FC4
:104DB000FF0BF7FF03C0F195E195F109E32E022FF8
:104DC0002E2FAE010E942B27CE01DF91CF911F9194
:104DD0000F91EF900895662777270C94B9281F93B9
:104DE000FC0199278827BC01E89411911032E9F35E
:104DF000193010F01E30C8F31B3251F01D3249F447
:104E0000689406C00E941627610F711D811D911DB7
:104E1000119110531A30B0F33EF49095809570952F
:104E200061957F4F8F4F9F4F1F910895592F482FA6
:104E3000372F262F660F771F881F991F660F771F42
:104E4000881F991F620F731F841F951F660F771F9E
:104E5000881F991F08954F925F926F927F929F9241
:104E6000AF92BF92CF92DF92EF92FF920F931F9378
:104E7000CF93DF93CDB7DEB729970FB6F894DEBF97
:104E80000FBECDBF6A01122FB02E2BE3201720F0EA
:104E9000FF24F394F00E02C0BCE3FB2E0F2D27E09D
:104EA000AE014F5F5F4F0E94162AAC018981982F97
:104EB0009970913031F0E1FC06C0E0FE06C090E24E
:104EC00005C09DE203C09BE201C090E0EE2DE071C1
:104ED00083FF3CC0911102C083E001C084E08117D0
:104EE00018F4212F281B01C020E0E1110BC0F601AE
:104EF000822F30E2882319F031938150FBCFC20E0C
:104F0000D11C20E0992329F0D6019C93F60131961B
:104F10006F01C6010396E2FE0AC03EE4D6013C934F
:104F200041E411964C93119712963C9306C03EE6CD
:104F3000F601308341E641833283FC01322F40E2A7
:104F4000332309F442C041933150FACF82FF44C069
:104F5000911102C083E001C084E0811718F4212F71
:104F6000281B01C020E0E1110BC0F601822F30E2C6
:104F7000882319F031938150FBCFC20ED11C20E061
:104F8000992329F0D6019C93F60131966F01C60151
:104F90000396E2FE0BC039E4D6013C933EE4119641
:104FA0003C93119736E412963C9307C039E6F6011C
:104FB00030833EE6318336E63283FC01322F40E215
:104FC000332319F041933150FBCFFC01E20FF11D67
:104FD00010828EEF9FEFB7C0F1E0911101C0F0E0B9
:104FE0006F2F70E01416150624F49A012F5F3F4FBF
:104FF00002C021E030E0260F371FBB2029F06B2DC7
:1050000070E06F5F7F4F02C060E070E0260F371FD7
:10501000612F70E0261737071CF4121B212F01C0E7
:1050200020E03E2D387159F4D601322F60E233234F
:1050300019F06D933150FBCFC20ED11C20E0FF233D
:1050400031F0D6019C93B6016F5F7F4F6B01E11188
:105050000BC0F601922F30E3992319F03193915050
:10506000FBCFC20ED11C20E09F2D940F3A81782FE8
:105070007071A72E84FF03C0313309F491501916C3
:1050800024F4993018F098E001C091E0E42F852FC6
:1050900057FF02C0E0E080E06E2F782FE0E0F0E004
:1050A000AEE29A2E3A01691A71082A01461A570A85
:1050B0000B2D10E01195019511096F3F8FEF7807C7
:1050C00029F4D6019C92C60101966C014617570738
:1050D00084F0661677066CF47F01E40CF51CA1E001
:1050E000B0E0AC0FBD1FEA0EFB1ED7011196BC90BD
:1050F00002C090E3B92E615071093196C601019644
:105100007C016017710724F0D601BC926C01D5CFE9
:105110006417750741F4363320F4353321F4A110B8
:1051200002C081E3B82EF601B082F701822F90E22F
:10513000882319F091938150FBCFF701E20FF11D05
:10514000108280E090E029960FB6F894DEBF0FBE83
:10515000CDBFDF91CF911F910F91FF90EF90DF9026
:10516000CF90BF90AF909F907F906F905F904F9047
:105170000895A0E0B0E0EFEBF8E20C94452CEC01D0
:105180007B016115710519F0DB018D939C938E01F4
:105190000F5F1F4F7880872D90E00E94EE2A892BA9
:1051A00011F0E801F4CFBDE27B1205C00F5F1F4F85
:1051B0007980C1E008C0EBE27E1204C08E010E5F70
:1051C0001F4F7980C0E06801F1E0CF1AD10843E0B9
:1051D00050E06EE071E0C6010E94F72A892BF1F4DD
:1051E000680122E0C20ED11C45E050E069E071E0A8
:1051F000C6010E94F72A892B21F4680187E0C80EB6
:10520000D11CE114F10419F0D701CD92DC92C11147
:10521000FFC060E070E080E89FE703C143E050E03A
:1052200066E071E0C6010E94F72A892B51F4E1146F
:10523000F10409F4F2C00E5F1F4FF70111830083E0
:10524000ECC0680160E070E0CB0100E010E0F60126
:10525000D0EDD70DDA3058F52C2F2260622E2C2F8E
:105260002870C2FF05C0211128C00F5F1F4F25C045
:10527000222311F001501109A5E0B0E09B01AC011F
:105280000E94362C4B015C01880C991CAA1CBB1C8B
:10529000C501B4016D0F711D811D911D6839A9E90A
:1052A0007A078A07A9E19A0740F0C66005C0DE3F89
:1052B00051F4C3FD44C0C8606C2EBFEFCB1ADB0AAB
:1052C0007080C62DC4CF2D2F2F7D2531C1F5408193
:1052D0004D3211F4C06106C04B3221F0319621E00D
:1052E00030E006C03296D60111964C9122E030E0B3
:1052F000A0EDA40FAA3018F0E21BF30B20C040E091
:1053000050E04038BCE05B075CF49A01220F331F89
:10531000220F331F420F531F440F551F4A0F511DB9
:105320003196DF0111972C91A0EDA20FAA3048F31E
:10533000C4FF03C0519541955109040F151FC1FFCA
:1053400007C0E114F10421F03197D701ED93FC93EC
:105350000E94142BC370C33019F06B017C0106C08E
:105360006B017C01F7FAF094F7F8F09420E030E05C
:10537000A901C701B6010E940F2B882309F445C07B
:1053800017FF06C0119501951109C5E2D1E002C0D1
:10539000CDE3D1E05E01B8E1AB1AB1084601BE2D04
:1053A000AF2D90E2E92EF12C0E151F0584F0FE01C1
:1053B0002591359145915491B4018B2F9A2F0E94DC
:1053C000752B4B01B82FA92F0E191F09EDCF24976C
:1053D000F594E794CA15DB0539F76401EB2EFA2E34
:1053E0008E2D880F8F2D881F8F3F49F020E030E0F1
:1053F000A901C701B6010E940F2B811106C082E2EC
:1054000090E090934C0480934B04C701B60109C00F
:1054100060E070E080E89FEF04C060E070E080EC46
:105420009FE7CDB7DEB7EEE00C94612C283008F092
:1054300027E03327DA01990F311D87FD916000962F
:105440006105710539F432602E5F3D9330E32A9592
:10545000E1F708959F3F30F080387105610509F04C
:105460003C5F3C5F3D93913008F08068911DDF9375
:10547000CF931F930F93FF92EF92192F987F9695DA
:10548000E92F96959695E90FFF27E556FE4F992748
:105490003327EE24FF24A701E70105900894079421
:1054A00028F4360FE71EF81E491F511D660F771F9F
:1054B000881F991F0694A1F70590079428F4E70E1A
:1054C000F81E491F561FC11D770F881F991F661FA1
:1054D0000694A1F70590079428F4F80E491F561F6B
:1054E000C71FD11D880F991F661F771F0694A1F74C
:1054F0000590079420F4490F561FC71FD81F990F16
:10550000661F771F881F0694A9F78491109517705E
:1055100041F0D695C79557954795F794E7941A9516
:10552000C1F7E1E4F1E0689415901591359165912A
:10553000959105907FE27395E118F10A430B560BA4
:10554000C90BD009C0F7E10CF11E431F561FC91F3C
:10555000D01D7EF4703311F48A95E6CFE8940150A3
:1055600030F0080F0AF40027021708F4202F2395C3
:10557000022F7A3328F079E37D932A95E9F710C05A
:105580007D932A9589F60694979567953795179593
:105590001794E118F10A430B560BC90BD00998F088
:1055A00023957E9173957A3308F070E37C932013F2
:1055B000B8F77E9170617D9330F0839571E37D93B0
:1055C00070E32A95E1F71124EF90FF900F911F915E
:1055D000CF91DF91992787FD9095089591110C94B3
:1055E000E22B803219F089508550C8F70895FB01ED
:1055F000DC014150504088F08D9181341CF08B3596
:105600000CF4805E659161341CF06B350CF4605EC7
:10561000861B611171F3990B0895881BFCCF0E94C2
:10562000512B08F481E00895E89409C097FB3EF4FB
:1056300090958095709561957F4F8F4F9F4F9923DF
:10564000A9F0F92F96E9BB279395F695879577955D
:105650006795B795F111F8CFFAF4BB0F11F460FF1D
:105660001BC06F5F7F4F8F4F9F4F16C0882311F075
:1056700096E911C0772321F09EE8872F762F05C089
:10568000662371F096E8862F70E060E02AF09A9524
:10569000660F771F881FDAF7880F9695879597F919
:1056A0000895990F0008550FAA0BE0E8FEEF1616B3
:1056B0001706E807F907C0F012161306E407F50706
:1056C00098F0621B730B840B950B39F40A2661F07A
:1056D000232B242B252B21F408950A2609F4A1401D
:1056E000A6958FEF811D811D08950E94882B0C9433
:1056F000FC2B0E94EE2B38F00E94F52B20F0952316
:1057000011F00C94E52B0C94EB2B11240C94302C01
:105710000E940D2C70F3959FC1F3950F50E0551F1B
:10572000629FF001729FBB27F00DB11D639FAA27F6
:10573000F00DB11DAA1F649F6627B00DA11D661F45
:10574000829F2227B00DA11D621F739FB00DA11D66
:10575000621F839FA00D611D221F749F3327A00D20
:10576000611D231F849F600D211D822F762F6A2FBC
:1057700011249F5750409AF0F1F088234AF0EE0F21
:10578000FF1FBB1F661F771F881F91505040A9F74E
:105790009E3F510580F00C94E52B0C94302C5F3F1C
:1057A000E4F3983ED4F3869577956795B795F7958A
:1057B000E7959F5FC1F7FE2B880F911D9695879502
:1057C00097F9089599278827089597F99F6780E8A2
:1057D00070E060E008959FEF80EC089500240A9443
:1057E0001616170618060906089500240A941216BC
:1057F0001306140605060895092E0394000C11F4EF
:10580000882352F0BB0F40F4BF2B11F460FF04C09B
:105810006F5F7F4F8F4F9F4F089557FD9058440FF4
:10582000551F59F05F3F71F04795880F97FB991FFF
:1058300061F09F3F79F087950895121613061406BC
:10584000551FF2CF4695F1DF08C016161706180649
:10585000991FF1CF86957105610508940895E89424
:10586000BB2766277727CB0197F908950E94782CEC
:10587000A59F900DB49F900DA49F800D911D1124A4
:1058800008952F923F924F925F926F927F928F92E4
:105890009F92AF92BF92CF92DF92EF92FF920F93BF
:1058A0001F93CF93DF93CDB7DEB7CA1BDB0B0FB6C9
:1058B000F894DEBF0FBECDBF09942A883988488886
:1058C0005F846E847D848C849B84AA84B984C8841C
:1058D000DF80EE80FD800C811B81AA81B981CE0F13
:1058E000D11D0FB6F894DEBF0FBECDBFED010895F8
:1058F000A29FB001B39FC001A39F700D811D112411
:10590000911DB29F700D811D1124911D0895505855
:10591000BB27AA270E949F2C0C94FC2B0E94EE2BE5
:1059200038F00E94F52B20F039F49F3F19F426F44B
:105930000C94EB2B0EF4E095E7FB0C94E52BE92F90
:105940000E940D2C58F3BA17620773078407950756
:1059500020F079F4A6F50C942F2C0EF4E0950B2E84
:10596000BA2FA02D0B01B90190010C01CA01A001B1
:105970001124FF27591B99F0593F50F4503E68F10C
:105980001A16F040A22F232F342F4427585FF3CF4D
:10599000469537952795A795F0405395C9F77EF41E
:1059A0001F16BA0B620B730B840BBAF09150A1F067
:1059B000FF0FBB1F661F771F881FC2F70EC0BA0FED
:1059C000621F731F841F48F4879577956795B79575
:1059D000F7959E3F08F0B0CF9395880F08F0992770
:1059E000EE0F9795879508950E94EE2B60F080E862
:1059F00091E009F49EEF0E94F52B28F040E851E079
:105A000071F45EEF0CC00C94EB2B0C942F2CE92F4F
:105A1000E0780E940D2C40F3092E052AB1F32617D9
:105A200037074807590738F00E2E07F8E02569F0C8
:105A3000E025E0640AC0EF6307F8009407FADB0191
:105A4000B9019D01DC01CA01AD01EF930E947D2DDA
:105A50000E94FC2B0E94372D5F91552339F02BEDCE
:105A60003FE049E450FD49EC0C94882C0895DF9305
:105A7000DD27B92FBF7740E85FE316161706480702
:105A80005B0718F4D92F0E943A2E9F938F937F9330
:105A90006F930E94882EE8EDF0E00E940E2E0E9487
:105AA000FC2B2F913F914F915F910E94882BDD231A
:105AB00051F09058A2EA2AED3FE049EC5FE3D0783C
:105AC0005D270E949F2CDF910C94FC2B0E947A2D65
:105AD0000C94FC2B0E94F52B58F00E94EE2B40F00A
:105AE00029F45F3F29F00C94E52B51110C94302CD4
:105AF0000C94EB2B0E940D2C68F39923B1F35523E2
:105B000091F3951B550BBB27AA27621773078407D0
:105B100038F09F5F5F4F220F331F441FAA1FA9F366
:105B200035D00E2E3AF0E0E832D091505040E69554
:105B3000001CCAF72BD0FE2F29D0660F771F881FB5
:105B4000BB1F261737074807AB07B0E809F0BB0BA8
:105B5000802DBF01FF2793585F4F3AF09E3F5105BC
:105B600078F00C94E52B0C94302C5F3FE4F3983ED6
:105B7000D4F3869577956795B795F7959F5FC9F7A5
:105B8000880F911D9695879597F90895E1E0660F26
:105B9000771F881FBB1F621773078407BA0720F09F
:105BA000621B730B840BBA0BEE1F88F7E095089508
:105BB0000E94DF2D6894B1110C94302C08950E943E
:105BC000152C88F09F5798F0B92F9927B751B0F04E
:105BD000E1F0660F771F881F991F1AF0BA95C9F771
:105BE00014C0B13091F00E942F2CB1E008950C94B4
:105BF0002F2C672F782F8827B85F39F0B93FCCF367
:105C0000869577956795B395D9F73EF490958095ED
:105C1000709561957F4F8F4F9F4F0895DF93CF937E
:105C20001F930F93FF92EF92DF927B018C01689498
:105C300006C0DA2EEF010E94882BFE01E894A591A0
:105C40002591359145915591A6F3EF010E949F2C26
:105C5000FE019701A801DA9469F7DF90EF90FF90B9
:105C60000F911F91CF91DF9108950E94512B08F45D
:105C70008FEF08959B01AC0160E070E080E89FE346
:105C80000C94662D19F416F40C94EB2B0C94912EB5
:105C90000E94152CB8F39923C9F3B6F39F57550BFF
:105CA00087FF0E949F2E0024A0E640EA90018058C2
:105CB0005695979528F4805C660F771F881F20F013
:105CC00026173707480730F4621B730B840B202913
:105CD00031294A2BA69517940794202531254A2768
:105CE00058F7660F771F881F20F0261737074807D9
:105CF00030F4620B730B840B200D311D411DA095F8
:105D000081F7B901842F9158880F9695879508954A
:105D10009B01AC010C94752B0E94512B880B990BA5
:105D200008959F3F31F0915020F4879577956795BE
:105D3000B795880F911D9695879597F9089591507D
:105D40005040660F771F881FD2F7089597FB072EE4
:105D500016F4009407D077FD09D00E94E22E07FCCC
:105D600005D03EF4909581959F4F0895709561956B
:105D70007F4F0895A1E21A2EAA1BBB1BFD010DC087
:105D8000AA1FBB1FEE1FFF1FA217B307E407F507EB
:105D900020F0A21BB30BE40BF50B661F771F881FC7
:105DA000991F1A9469F760957095809590959B015D
:105DB000AC01BD01CF010895EE0FFF1F0590F491D6
:105DC000E02D0994AA1BBB1B51E107C0AA1FBB1FF2
:105DD000A617B70710F0A61BB70B881F991F5A9577
:105DE000A9F780959095BC01CD010895CF93DF93DD
:105DF0008230910510F482E090E0E0914F04F09140
:105E0000500420E030E0C0E0D0E0309711F1408154
:105E1000518148175907C0F04817590761F482812A
:105E20009381209719F09B838A832BC09093500411
:105E300080934F0426C02115310519F042175307EE
:105E400018F49A01BE01DF01EF010280F381E02D19
:105E5000DCCF2115310509F1281B390B2430310520
:105E600090F412968D919C9113976115710521F014
:105E7000FB019383828304C09093500480934F046A
:105E8000FD01329644C0FD01E20FF31F819391930F
:105E9000225031092D933C933AC020914D0430910A
:105EA0004E04232B41F420911E0130911F013093A9
:105EB0004E0420934D0420911C0130911D012115A9
:105EC000310541F42DB73EB7409120015091210199
:105ED000241B350BE0914D04F0914E04E217F307BB
:105EE000A0F42E1B3F0B2817390778F0AC014E5F4A
:105EF0005F4F2417350748F04E0F5F1F50934E0435
:105F000040934D048193919302C0E0E0F0E0CF0113
:105F1000DF91CF9108950F931F93CF93DF93009755
:105F200009F48CC0FC0132971382128200914F0455
:105F3000109150040115110581F420813181820FE7
:105F4000931F20914D0430914E042817390779F59D
:105F5000F0934E04E0934D0471C0D80140E050E04E
:105F6000AE17BF0750F412962D913C911397AD01D7
:105F70002115310509F1D901F3CF9D01DA013383F0
:105F8000228360817181860F971F8217930769F4BE
:105F9000EC0128813981260F371F2E5F3F4F318357
:105FA00020838A819B8193838283452B29F4F093FC
:105FB0005004E0934F0442C01396FC93EE93129763
:105FC000ED01499159919E01240F351FE217F30706
:105FD00071F480819181840F951F029611969C9394
:105FE0008E938281938113969C938E931297E0E017
:105FF000F0E0D80112968D919C911397009719F0BB
:10600000F8018C01F6CF8D919C9198012E5F3F4F46
:10601000820F931F20914D0430914E0428173907A9
:1060200069F4309729F41092500410924F0402C082
:106030001382128210934E0400934D04DF91CF918E
:106040001F910F910895A0E0B0E0E9E2F0E30C9415
:10605000452CEC01009721F4CB010E94F62EB8C02C
:10606000FC01E60FF71F9C0122503109E217F307EC
:1060700008F4ACC0D9010D911C91119706171707B0
:10608000B0F00530110508F49FC0C80104978617C9
:10609000970708F499C002501109061B170B0193CA
:1060A00011936D937C93CF010E948B2F8DC05B0168
:1060B000A01AB10A4C01800E911EA0914F04B0911C
:1060C000500440E050E0E12CF12C109709F44AC054
:1060D000A815B905D1F56D907C901197630182E008
:1060E000C80ED11CCA14DB0480F1A3014A195B0954
:1060F0006A0182E0C80ED11C1296BC9012971396CA
:10610000AC91B5E0CB16D10440F0B282A3835183A9
:106110004083D9016D937C930AC00E5F1F4FC3016A
:10612000800F911FF90191838083EB2DFA2FE114E9
:10613000F10431F0D7011396FC93EE93129744C00B
:10614000F0935004E0934F043FC08D919C911197C0
:106150004817590708F4AC017D0112960D90BC91C7
:10616000A02DB3CF80914D0490914E0488159905D0
:10617000E1F446175707C8F480911C0190911D0166
:10618000009741F48DB79EB74091200150912101B5
:10619000841B950BE817F907C8F4F0934E04E093BD
:1061A0004D04F901718360830FC0CB010E94F62E6C
:1061B0007C01009759F0A801BE010E94FF30CE017A
:1061C0000E948B2FC70104C0CE0102C080E090E086
:1061D000CDB7DEB7EEE00C94612C81E090E0F8944E
:1061E0000C940F31FB01DC0104C08D9101908019EA
:1061F00021F441505040C8F7881B990B0895FB01CA
:10620000DC0102C001900D9241505040D8F7089532
:10621000FB01DC0101900D920020E1F7089515E0EB
:10622000C8E8D5E004C0FE010E94DC2E2196C938E2
:08623000D107C9F7F894FFCF74
:106238009A99833F3433383FD6AD1E3D0FB9563F48
:10624800190015000C000A0027192719000051042D
:106258008000E803000000008F18230F2718D618C5
:10626800581836184A180000000030150015601537
:10627800DC14FC13EC14DD14000000001D14230FC3
:1062880060151C1471148914041452002000440071
:10629800550041006E616E00696E66006F7666009B
:0462A8000D0A0000DB
:107E0000112484B714BE81FFF0D085E080938100F7
:107E100082E08093C00088E18093C10086E0809377
:107E2000C20080E18093C4008EE0C9D0259A86E02C
:107E300020E33CEF91E0309385002093840096BBD3
:107E4000B09BFECF1D9AA8958150A9F7CC24DD24C4
:107E500088248394B5E0AB2EA1E19A2EF3E0BF2EE7
:107E6000A2D0813461F49FD0082FAFD0023811F036
:107E7000013811F484E001C083E08DD089C08234E0
:107E800011F484E103C0853419F485E0A6D080C0E4
:107E9000853579F488D0E82EFF2485D0082F10E0AE
:107EA000102F00270E291F29000F111F8ED06801E7
:107EB0006FC0863521F484E090D080E0DECF843638
:107EC00009F040C070D06FD0082F6DD080E0C81688
:107ED00080E7D80618F4F601B7BEE895C0E0D1E017
:107EE00062D089930C17E1F7F0E0CF16F0E7DF06D8
:107EF00018F0F601B7BEE89568D007B600FCFDCFD4
:107F0000A601A0E0B1E02C9130E011968C91119780
:107F100090E0982F8827822B932B1296FA010C0160
:107F200087BEE89511244E5F5F4FF1E0A038BF0790
:107F300051F7F601A7BEE89507B600FCFDCF97BE46
:107F4000E89526C08437B1F42ED02DD0F82E2BD052
:107F50003CD0F601EF2C8F010F5F1F4F84911BD097
:107F6000EA94F801C1F70894C11CD11CFA94CF0C13
:107F7000D11C0EC0853739F428D08EE10CD085E9AC
:107F80000AD08FE07ACF813511F488E018D01DD067
:107F900080E101D065CF982F8091C00085FFFCCF94
:107FA0009093C60008958091C00087FFFCCF809118
:107FB000C00084FD01C0A8958091C6000895E0E648
:107FC000F0E098E1908380830895EDDF803219F02E
:107FD00088E0F5DFFFCF84E1DECF1F93182FE3DFCA
:107FE0001150E9F7F2DF1F91089580E0E8DFEE27F6
:047FF000FF270994CA
:027FFE00040479
:0400000300007E007B
:00000001FF